:100000000C9435000C945D000C945D000C945D0024
:100010000C945D000C945D000C945D000C945D00EC
:100020000C945D000C945D000C945D000C945D00DC
:100030000C945D000C945D000C945D000C945D00CC
:100040000C945D000C945D000C945D000C945D00BC
:100050000C945D000C945D000C945D000C945D00AC
:100060000C945D000C945D00020211241FBECFEFC2
:10007000D8E0DEBFCDBF11E0A0E0B1E0E0EFF4E0FA
:1000800002C005900D92A632B107D9F721E0A6E291
:10009000B1E001C01D92A734B207E1F710E0C5E35B
:1000A000D0E004C02197FE010E941502C433D1079D
:1000B000C9F70E940D010C9476020C9400000F9376
:1000C0001F93CF93DF93EC018B01CB0101960E942C
:1000D0001B02F8019081933409F446C0943409F46A
:1000E0004BC0923409F450C0933409F440C09434A6
:1000F00009F445C0923409F44AC0933459F0943459
:1001000081F09234A9F420E030E040E050E065E274
:1001100070E014C020E030E040E050E068E270E0C1
:100120000DC020E030E040E050E06BE270E006C03F
:1001300020E030E040E050E060E070E079836883E8
:100140005B834A833D832C838E8321E030E0A901C9
:1001500002C0440F551F8A95E2F7CA014F8380956C
:1001600088873A87298718C026E230E002C020E05D
:1001700030E047E250E0D2CF29E230E002C020E098
:1001800030E04AE250E0D1CF23E230E002C020E08C
:1001900030E044E250E0BBCFDF91CF911F910F914F
:1001A0000895662369F0E82FF92F80E022813381DA
:1001B000232B41F020813181232B41F480E00895ED
:1001C00081E0089580E0089581E008958F5F3B9677
:1001D0006813ECCFF9CF6623F9F0E82FF92F80E010
:1001E000218532852130310539F4A281B3812C91EA
:1001F0009781922B9C930CC0A281B3812C91908506
:1002000092239C93A081B1812C91908592239C9301
:100210008F5F3B966813E4CF0895BF92CF92DF9231
:10022000EF92FF920F931F93CF93DF9300D000D0F4
:100230001F92CDB7DEB78FEF87B9E0ECF0E0808199
:10024000826080831092C5001092C400E1ECF0E05F
:10025000808188608083E2ECF0E08081866080832A
:1002600063E086E291E00E94D100882309F4B6C0E1
:1002700063E086E291E00E94EB00E6E2F1E021E03B
:1002800030E032872187A281B3819C918781892BBD
:100290008C93A081B1819C918781892B8C9330A311
:1002A000278FA08DB18D9C91858D892B8C93A689EC
:1002B000B7899C91858D892B8C93158A148AA58585
:1002C000B6859C91838989238C93A385B4859C9161
:1002D000838989238C935298B12C6F0100EC10E034
:1002E0000F2EF6ECEF2EF12CF02DD6015696ED9157
:1002F000FC91579790815D968C91892B8083BFEFFD
:10030000E1EEF4E0B150E040F040E1F700C0000061
:10031000D6015696ED91FC91579790815E968C91FF
:1003200089238083BFEFE1EEF4E0B150E040F0407C
:10033000E1F700C00000D6011F96ED91FC915097A7
:10034000908152968C915297892359F0ED91FC91AE
:100350001197908117968C91892B8083E0E0F1E0D2
:1003600016C0D601ED91FC911197908118968C9151
:1003700089238083E0E1F1E09191D8018C9185FFA0
:10038000FCCFD7019C9380818111F6CFAECF9191A4
:10039000D8018C9185FFFCCFD7019C93808181117E
:1003A000F6CF4AE0BE016F5F7F4F8B2D90E00E9439
:1003B0003902FE0131969191D8018C9185FFFCCFD5
:1003C000D7019C9380818111F6CFF801808185FF50
:1003D000FCCF8AE0D7018C93B39487CF8FEF87B996
:1003E00018B880E090E00F900F900F900F900F9052
:1003F000DF91CF911F910F91FF90EF90DF90CF9001
:10040000BF9008956CE171E086E291E00E945F0088
:100410006FE171E081E391E00E945F0062E271E0D0
:100420008CE391E00E945F000895EE0FFF1F05909E
:10043000F491E02D0994FC0188279927E8942191F3
:100440002032E9F3293010F02E30C8F32B3241F07E
:100450002D3239F4689404C00E944402820F911D29
:10046000219120532A30C0F31EF4909581959F4F1F
:100470000895BB274A3031F4992322F4BDE29095C8
:1004800081959F4F0C944D027AE0979F902D879F06
:10049000802D910D11240895BB27FB015527AA2714
:1004A000880F991FAA1FA41710F0A41B8395505101
:1004B000B9F7A05DAA3308F0A95DA193009779F779
:1004C000B111B1931192CB010C946602DC01FC01D5
:1004D000672F71917723E1F7329704C07C916D9378
:1004E00070836291AE17BF07C8F30895F894FFCFE9
:1004F00054686973206973206120746573742000E7
:100500004C4F535420504F5745520A004333004438
:060510003200443300003C
:00000001FF
